:1000000000308A00B62C0000FF00030E8301A1001F
:100010000A08A0008A010408A2007708A300780853
:10002000A4007908A5007A08A6007B08A70083131E
:1000300083128C308400801E1F288C1A38288C3044
:100040008400001C25280C183B2822088400230863
:10005000F7002408F8002508F9002608FA00270808
:10006000FB0020088A00210E8300FF0E7F0E09008E
:100070008A110A1253288A110A125A2C5908F801B7
:100080005802031846285808F7005228F70108308C
:10009000DA00D80DF70D590877020318F700F80DAC
:1000A000DA0B492800348C1E53281A08B300330891
:1000B000493C031DD6280508B20049300C1E5E28B5
:1000C00099003208D2001F30D3002030531E303048
:1000D000D4005208F700D21F7428F709F70A7708EE
:1000E000D2002D30D400D3175208D8006430D90084
:1000F0003E207708D20030307807D5005208D8006B
:100100000A30D9003E2030307707D70030307807EA
:10011000D6005408F700D31D8F28D31F5311531A4C
:100120009C28D31FB7285319B7287708D500D318B0
:10013000B7287708D600B72830305502031DB728F6
:100140007708D5002030D400D31DAA285311D3142A
:10015000D31FD31030305602031DB7287708D600BE
:100160002030D500D31DAA28D310D31F5310531D00
:10017000BD2854080C1EBA289900D31CC328550862
:100180000C1EC0289900531CC92856080C1EC628EE
:10019000990057080C1ECA2899000D300C1ECE2855
:1001A00099000A300C1ED228990053293308413C8B
:1001B000031DDF2883160610831206145329330803
:1001C000613C031DE828831606108312061053298C
:1001D0003308423C031DF1288316861083128614CF
:1001E00053293308623C031DFA28831686108312B4
:1001F000861053293308433C031D03298316061137
:100200008312061553293308633C031D0C298316FA
:1002100006118312061153293308443C031D152986
:10022000831686118312861553293308643C031DF7
:100230001E29831686118312861153293308453CE3
:10024000031D272983160612831206165329330825
:10025000653C031D302983160612831206125329AA
:100260003308463C031D39298316861283128616ED
:1002700053293308663C031D4229831686128312D4
:10028000861253293308473C031D4B298316061356
:100290008312061753293308673C031D532983161D
:1002A0000613831206138C128A110A1225288E3027
:1002B000F7006008F8005F08F900FA01F808031D6C
:1002C0006B297908F800F9010830F702F808031DD6
:1002D0006B29F70173290310F81B7229F90DF80D2A
:1002E000F7036B29F81300345F080319392AEB0070
:1002F00063080319392AEB02031C83297F30EB07BB
:100300000318392A89298130EB02031C392A031981
:10031000392A6B08F700F801F901FA01EA016008CF
:10032000E900E9176108E8006208E7001930EB000E
:100330006608E7020318AC290130E8020318AC296B
:10034000E9020318AC29EA020318AC29EA0AE90A0F
:10035000E80A6608E707DE296508E8020318C729E6
:100360000130E9020318C729EA020318C729EA0A7B
:10037000E90A6508E8076608E707031CDE29E80ABA
:10038000031DDE29E90A031DDE29EA0ADE296408C5
:100390008038E9020318DD290130EA020318DD295B
:1003A000EA0A64088038E9076508E807031CBB29E6
:1003B000E90A031DBB29EA0ABB297A14EB0BE129E0
:1003C000EC290310E70DE80DE90DEA0D0310FA0D15
:1003D000F90DF80DEC0D98296C1CF4290310F80C9C
:1003E000F90CFA0CEC0CF729F7030319392AEC1B6A
:1003F000202A0310E70DE80DE90DEA0D6608E70273
:1004000003180C2A0130E80203180C2AE902031829
:100410000C2AEA02031C2F2A6508E8020318172A8F
:100420000130E9020318172AEA02031C2F2A640884
:100430008038E9020318202A0130EA02031C2F2A1F
:10044000FA0A031D2F2AF90A031D2F2AF80A031D91
:100450002F2AF70A0319392AF80CF90CFA0C60084C
:10046000EB006408EB06EB1F372AF8173D2AF81358
:100470003D2AF701F801F901FA0100345F08031978
:10048000AE2AE70063080319AE2AE70703184F2ACC
:100490007F30E702031CAE2A0319AE2A532A8130AB
:1004A000E7070318AE2A6708F700F801F901FA0117
:1004B0006008EB00EB176108EA006208E9001830F9
:1004C000E700E801691C7C2A6608FA07031C6E2A0B
:1004D000F90A031D6E2AF80A0319E8176508F907D7
:1004E000031C752AF80A0319E8176408E100E117EC
:1004F0006108F8070318E817E80DF80CF90CFA0C76
:10050000EB0CEA0CE90C0310E70B612A0130F7074A
:100510000318AE2AF81B932AEB0DFA0DF90DF80D0E
:10052000F7030319AE2AEB1FA42AFA0A031DA42A13
:10053000F90A031DA42AF80A031DA42AF80CF90CD1
:10054000FA0CF70A0319AE2A6008E8006408E80606
:10055000E81FAC2AF817B22AF813B22AF701F801FB
:10056000F901FA01003480308318E406E901EA0158
:100570006008E8006408E8065F080319A32BE70099
:10058000F70063080319AC2BE7020319482B031C7F
:10059000062B6408ED00ED176508EC006608EB001B
:1005A000EA010310ED0CEC0CEB0CEA0CE70BD02A83
:1005B000E81FDD2A6914C02B6910671069166230C4
:1005C00084008313D52B6912E81BF02A671CFB2AD1
:1005D000ED0CEC0CEB0CEA0CF70A0319BB2BFB2A15
:1005E000ED1BFE2A0310EA0DEB0DEC0DED0DF703EC
:1005F0000319BB2BF02A6917682B69136008E80000
:10060000E81F042BED17B42BED13B42B6308E700A0
:10061000F7005F08E7026008ED00ED176108EC00E5
:100620006208EB00EA010310ED0CEC0CEB0CEA0C99
:10063000E70B122BE81F1F2BE914C02BE9106710E2
:10064000E916663084008313D52BE912E81B322BA0
:10065000671C3D2BED0CEC0CEB0CEA0CF70A0319B4
:10066000BB2B3D2BED1B402B0310EA0DEB0DEC0DCE
:10067000ED0DF7030319BB2B322BE917682BE91398
:100680006408E800E81F462BED17B42BED13B42BDC
:100690006408ED00ED176508EC006608EB00E81F44
:1006A000552BED136915C02B6911EA0167106230F3
:1006B00084008313D52BE81B7E2B6008E800671CA1
:1006C000682BED0CEC0CEB0CEA0CF70A0319BB2BB6
:1006D000EA1F792BEB0A031D792BEC0A031D792BFA
:1006E000ED0A031D792BED0CEC0CEB0CF70A03194A
:1006F000BB2B691BFD2AE91B3F2B9D2B8030ED0690
:10070000ED1F862BC02B6408E800932B6008E800DF
:10071000ED08031D932BEC08031D932BEB08031D21
:10072000932BF701B42BED1B9D2B0310EA0DEB0D62
:10073000EC0DED0DF70B932BBB2BE81FA12BED1749
:10074000B42BED13B42B6308F7006408ED006508C3
:10075000EC006608EB00B42B5F08F7006008ED00C2
:100760006108EC006208EB006D08F8006C08F90005
:100770006B08FA00F32BF701F801F901FA01F32BEA
:10078000EA01EB09EC09ED09EA09EA0A031DCE2B9F
:10079000EB0A031DCE2BEC0A0319ED0A6918DC2ABB
:1007A000E9181E2B6919542B832B0008EB07031C37
:1007B000DF2BEC0A031DDF2BED0A031967148403FA
:1007C0000008EC07031CE72BED0A031967148403E8
:1007D0000008801F803AED0703186714691AE32A9E
:1007E000E91A252B5B2B00348E30F7005F08F702E7
:1007F0006008F9006108F800F917F70803190B2CD5
:100800000310F908031D072CF80803190B2CF90C29
:10081000F80CF70B002CE01F122CF809F909F80A64
:100820000319F90A00345E0DF700F70DFC30F705E7
:100830007708E001DF0057215908E2005808E1007D
:100840005708E0005608DF007A08E6007908E5005E
:100850007808E4007708E30074215D08E2005C0892
:10086000E1005B08E0005A08DF007A08E60079083A
:10087000E5007808E4007708E3003E228314E201F3
:10088000FF30E1007F30E0008E30DF007A08E600C4
:100890007908E5007808E4007708E300B3227A08D5
:1008A000E2007908E1007808E0007708DF00F4232F
:1008B000790800349730D2001830D3009630D40035
:1008C0008030D500D9005408D8005308D70052080A
:1008D000D600CD30DD00CC30DC004C30DB007B308E
:1008E000DA000830DE00132479088F0078088E00C3
:1008F000AA0A0319AB0A2A0F812C2B0F812CAB01FA
:10090000AA010C108A110A122528831605148514D1
:100910000515851505168516061086100611861113
:100920000612861206130714871407158715071673
:100930000610831206108316861083128610831603
:1009400006118312061183168611831286118316EF
:1009500006128312061283168612831286128316DB
:100960000613831206138A110A12262D840183139B
:100970001F308305813083169900A630980090308F
:100980008312980083161F149F141F159F110730A0
:100990009C008312A901AA01AB01AC01AD01AE011B
:1009A000AF01B001B101B301FF30B40083161F14D1
:1009B0009F141F159F111F1383121F139F1383165C
:1009C0009F1783121F149412B412340883168700E1
:1009D000831234163408831687008312B411340846
:1009E0008316870001308312940000308316940030
:1009F000B530831290009530B5007430B6002430C5
:100A0000B700B801A8018B1BA8178B133808D900B1
:100A10003708D8003608D7003508D600CD30DD00BD
:100A2000CC30DC004C30DB007B30DA000830DE00FC
:100A30001324A81B8B1779088F0078088E00831663
:100A40000C148C16C03083128B04852C262D630069
:02400E007A3FF7
:00000001FF
;PIC16F876A
